:020000042000DA
:10000000005000202D1200207912002079120020CB
:1000100000000000000000000000000000000000E0
:100020000000000000000000000000007912002025
:1000300000000000000000005D210020E1250020FC
:100040007912002079120020791200207912002004
:1000500079120020791200207912002079120020F4
:1000600079120020791200206909002079120020FD
:1000700079120020791200207912002079120020D4
:10008000791200207912002000000000791200206F
:1000900079120020791200207912002079120020B4
:1000A0007912002079120020791200202D090020F9
:1000B00079120020000000007912002000000000EA
:1000C0005FF808F180B400AF0C4A0D4B1A600B4B7F
:1000D000C8330B4A53600B4B084A1A60094B1B6824
:1000E00000221A60074B1B6800225A60054B1B68F0
:1000F00000229A6000BFBD4680BC704740280020A7
:100100000C2900200829002080B500AF024801F02A
:10011000D5FF00BF80BD00BF1429002080B500AF0F
:100120000F4801F0E3FF0E4B1B78DBB2002B14D11C
:100130000C4B1B78DBB2012B0FD10B4B1B78DBB2C6
:100140000133DAB2084B1A7000F006FE064B1B783A
:10015000DBB2013BDAB2044B1A7000BF80BD00BFB6
:1001600014290020162900201529002080B500AF91
:100170000F4B1B78DBB2012B10D10E4B1B78012BE0
:1001800001D100F039FF0C4B1B78DBB2012B01D100
:1001900000F0E2FD064B00221A7006E0044B1B78CB
:1001A000DBB2013BDAB2024B1A7000BF80BD00BF68
:1001B00015290020542B00201629002080B500AFFF
:1001C000164B174A1A60174B07221A60164A164B2D
:1001D0001B6843F07F431360144A144B1B686FEA9B
:1001E00003436FEA1343136000F0BEFC01F08CFC84
:1001F000FFF768FF0E4B1B78DBB20133DAB20C4B12
:100200001A700C4B4FF4CA5200210B4800F068FEE4
:10021000084801F091FF00BF80BD00BF14E000E07E
:10022000FF52070010E000E01CED00E020ED00E0D0
:1002300015290020082B0020F126002080B500AFF2
:10024000094B0A4A1A60084B1B68094A1360064B9F
:100250001B6801225A71044B1B68184600F038FDD8
:10026000FFF784FF00BF80BD182B0020A0290020CD
:10027000142B002080B489B000AF78600023FB61AC
:100280000023BB6100237B6100233B610023FB60F3
:10029000674B5B6803F00C03FB61FB69042B07D021
:1002A000082B09D0002B2FD17B68624A1A602FE0FF
:1002B0007B68604A1A602BE05D4B5B6803F4701347
:1002C000BB615B4B5B6803F480337B61BB699B0C58
:1002D0000233BB617B69002B06D1BB69564A02FB26
:1002E00003F27B681A6013E0514BDB6A03F00F03E3
:1002F00001333B614F4A3B69B2FBF3F3BA6902FB3E
:1003000003F27B681A6003E07B684A4A1A6000BF08
:10031000474B5B6803F0F003FB61FB691B09FB6162
:10032000464AFB6913441B78DBB2FB607B681A68A2
:10033000FB68DA407B685A603D4B5B6803F4E0631E
:10034000FB61FB691B0AFB613C4AFB6913441B7898
:10035000DBB2FB607B685A68FB68DA407B689A60B6
:10036000334B1B6B03F48073002B03D17B68344A3F
:10037000DA6010E02E4B5B6803F48043002B05D15C
:100380007B689B685A087B68DA6004E07B689B683E
:100390009A087B68DA60264B1B6B03F04003002B46
:1003A00004D17B6848F212021A6103E07B684FF4C3
:1003B00000421A611E4B1B6B03F01003002B03D18C
:1003C0007B681C4A5A6103E07B681A687B685A6143
:1003D000174B1B6B03F00303002B04D17B689A6857
:1003E0007B689A611EE0124B1B6B03F00303012B29
:1003F00004D17B681A687B689A6113E00C4B1B6B15
:1004000003F00303022B04D17B684FF400429A618E
:1004100008E0074B1B6B03F00303032B02D17B683F
:10042000044A9A6100BF2437BD4680BC704700BFB4
:100430000010024000127A0000093D000028002050
:10044000809FD50080B483B000AF78600B46FB700E
:10045000FB78002B06D00949084B5A697B68134387
:100460004B6106E00549054B5A697B68DB43134045
:100470004B6100BF0C37BD4680BC70470010024086
:1004800080B483B000AF78600B46FB70FB78002B24
:1004900006D00949084B9A697B6813438B6106E0D3
:1004A0000549054B9A697B68DB4313408B6100BFAC
:1004B0000C37BD4680BC70470010024080B483B04A
:1004C00000AF78600B46FB70FB78002B06D0094923
:1004D000084B9A6A7B6813438B6206E00549054B1B
:1004E0009A6A7B68DB4313408B6200BF0C37BD46C2
:1004F00080BC70470010024080B483B000AF7860C9
:100500000B46FB70FB78002B06D00949084BDA68D4
:100510007B681343CB6006E00549054BDA687B68CE
:10052000DB431340CB6000BF0C37BD4680BC704737
:100530000010024080B483B000AF78600B46FB70BF
:10054000FB78002B06D00949084B1A697B681343D6
:100550000B6106E00549054B1A697B68DB431340D4
:100560000B6100BF0C37BD4680BC704700100240D5
:1005700090B587B000AF0346FB71FA797049134616
:100580005B001344DB000B4404331B68FB60FB6817
:10059000002B00F0D1806B4B1B78DBB20133DAB259
:1005A000684B1A70684B1B68002B09D1FA79134607
:1005B0005B001344DB00624A1344634A1360B8E0F3
:1005C000614B1B687B61FB683B61AEE03A697B690C
:1005D0005B68D31A3B613B69002B7EDA7B695B6900
:1005E000002B28D07B695969FA7913465B001344C4
:1005F000DB00534A13440B61FA797B69596950480F
:1006000013465B001344DB00034414331960FA798A
:100610004B4913465B001344DB000B4410337A69EB
:100620001A60FA7913465B001344DB00444A1A440B
:100630007B695A611DE0FA79434B196840481346BB
:100640005B001344DB000344103319603E4B196810
:10065000FA7913465B001344DB00394A13444B61BB
:10066000FA7913465B001344DB00354A1344364ADB
:100670001360FA79F97932480B465B000B44DB00D2
:10068000034410331B6859683B6919442C481346CE
:100690005B001344DB00034404331960FA792849F2
:1006A00013465B001344DB000B4410331968FA79DE
:1006B000234813465B001344DB00034410331B68DC
:1006C0005868FA791E4C13465B001344DB00234440
:1006D00004331B68C31A4B602BE03B69002B21DB02
:1006E0007B691B69002B1DD1FA79154913465B0004
:1006F0001344DB000B4414337A691A60FA79134609
:100700005B001344DB000E4A1A447B691A61FA79D4
:1007100039690B4813465B001344DB000344043380
:10072000196006E07B691B697B617B69002B7FF4A4
:100730004DAFFFF71BFD00E000BF1C37BD4690BD6D
:1007400018290020152900204829002080B584B0F0
:1007500000AF0346FB71FA7913465B001344DB00DC
:100760002C4A1344FB602C4B1B78DBB20133DAB20A
:10077000294B1A70FB685B69002B07D1FB681B696A
:10078000002B03D1254B00221A603DE0FB685B691A
:10079000002B14D1FB681B69204A13601F4B1B6898
:1007A00000225A61FB681B69FA6812695168FA688D
:1007B00052680A445A60FB6800221A6124E0FB6810
:1007C0001B69002B07D1FB685B6900221A61FB687B
:1007D00000225A6118E0FB685B69FA6812691A61C5
:1007E000FB681B69FA6852695A61FB681B69FA6801
:1007F00012695168FA6852680A445A60FB6800221C
:100800001A61FB6800225A61FFF7B0FC00BF103785
:10081000BD4680BD18290020152900204829002048
:1008200080B582B000AF1B4B1B687B6027E07B6804
:100830005B78002B0BD17B681B781846FFF786FF8F
:100840007B6801229A707B68DB68984714E07B68BC
:100850005B78012B10D17B681B781846FFF776FF79
:100860007B689A687B685A607B681B781846FFF73C
:100870007FFE7B68DB689847064B1B687B607B6864
:10088000002B03D07B685B68002BD0D000BF0837FB
:10089000BD4680BD4829002080B500AF074B1B78BE
:1008A000DBB2012B06D9064B01221A70054B01223F
:1008B0001A7001E0FFF7B4FF00BF80BD15290020CA
:1008C000542B0020562B002080B588B000AF7860F4
:1008D000144801F007FA7B68BB600023FB6000232B
:1008E0003B6100237B610023FB610C23BB6107F1AB
:1008F000080319460B4801F01FFA2321094801F0AB
:10090000F3FA0121074801F0D3FA0122064905480C
:1009100001F01EFB0121034801F0AEFA00BF2037B1
:10092000BD4680BD003801401A010B0080B500AF04
:10093000FFF7EAFB09490A4801F058FB0346002B80
:1009400004D0084A137843F00103137003490448A4
:1009500001F09AFBFFF7E2FB00BF80BD1A010B001C
:10096000003801409429002080B500AFFFF7CCFB90
:100970000021174800F01EFD102000F06FFD4FF41D
:10098000807000F06BFD102000F076FD4FF4807059
:1009900000F072FD0F4A13796FF3000313710D4BD2
:1009A0005B78012B06D10A4B0B4ADA60094B002217
:1009B0005A7005E0064B094ADA60064B01225A706C
:1009C0000121034800F0F6FCFFF7A8FB00BF80BD43
:1009D0003000024094290020732900205329002070
:1009E00080B582B000AF0A233B7100237B710123E5
:1009F000BB713B1D184601F087FE1B233B71012391
:100A00007B710123BB713B1D184601F07DFE00BFC9
:100A10000837BD4680BD00BF80B58CB000AF2D4803
:100A200000F02CFC2C4B7B602C4BBB600023FB604C
:100A300020233B6100237B618023BB610023FB619A
:100A400000233B6200237B624FF40053BB62002310
:100A5000FB623B1D19461F4800F06EFC01211D483A
:100A600000F0A8FC1E4A137943F0010313711D48DE
:100A700000F004FC1C4B7B601C4BBB601023FB6034
:100A80001B4B5B783B6100237B618023BB610023B0
:100A9000FB6100233B6200237B624FF48053BB6207
:100AA0000023FB623B1D19460E4800F045FC012265
:100AB00002210C4800F09AFC01210A4800F07AFC5F
:100AC0000122C0210B4801F025FA00BF3037BD4696
:100AD00080BD00BF3000024024380140532900206F
:100AE000942900201C0002402838014012280020D0
:100AF000102800200038014080B582B000AF786037
:100B00000B46FB7000BF154B1B7903F00103DBB2F2
:100B1000002BF8D1114A137943F00103137100211E
:100B20000F4800F047FC202000F07EFC0346002B1D
:100B300006D0202000F092FC40210A4801F048FA3B
:100B4000074A7B68D360064AFB785360012104485A
:100B500000F030FC00BF0837BD4680BD942900205E
:100B60001C0002400038014080B485B000AF154B36
:100B7000BB60154B7B600023FB7311E0BB68FA7B05
:100B80009A71BB6803225A71BB687A685A62BB6863
:100B90002C33BB607B682C337B60FB7B0133FB73A6
:100BA000FB7B042BEAD9BB68FA7B9A71BB680022F5
:100BB0005A62064B034A1A6000BF1437BD4680BC18
:100BC000704700BFA0290020CC2900200C2B00205A
:100BD00090B486B000AF78607B681B79FB737B684C
:100BE00000225A71354B1B683B613B691B79FA7BCC
:100BF0009A421CD13A697B689A4218D03B69002B13
:100C000015D02F4BD3E900122E4B18CBA24208BFB0
:100C100099420CD23B695B8999B24FF00002294B93
:100C200018CB5B1844EB0204254AC2E90034264B7A
:100C30001B683B613B69002B06D1244B01221A70D3
:100C4000214A7B68136033E03B691B79FA7B9A4247
:100C50000CD21E4B01221A707B683A695A623B69BA
:100C60007A689A62184A7B68136021E03B695B6A84
:100C70007B6109E07B691B79FA7B9A4208D37B6927
:100C80003B617B695B6A7B617B69002BF2D100E091
:100C900000BF7B687A695A623B697A685A627B68EE
:100CA0003A699A627B69002B02D07B697A689A6202
:100CB00000BF1837BD4690BC704700BF182B0020FE
:100CC000202B0020B82C0020102B002016290020FB
:100CD00080B483B000AF78607B685B6A002B07D17B
:100CE0007B689B6A002B03D11A4B00221A602BE011
:100CF0007B689B6A002B0BD17B685B6A154A13608B
:100D00007B6800225A62134B1B6800229A621BE028
:100D10007B685B6A002B07D17B689B6A00225A6262
:100D20007B6800229A620FE07B689B6A7A68526A4D
:100D30005A627B685B6A7A68926A9A627B68002270
:100D40005A627B6800229A6200BF0C37BD4680BCA5
:100D5000704700BF102B002090B585B000AF444B0A
:100D60001B68FB60434B1B68BB60BB68002B79D0E2
:100D7000414B1B68FA689A4274D1404B1B78DBB236
:100D8000012B6FD83E4B1B78DBB2002B6AD13D4B59
:100D900000221A70FB681B79FB71BB681B79BB7161
:100DA000FB685B79012B09D0334ABB681360BB68D1
:100DB00001225A71B868FFF78BFF29E0BA79FB79F5
:100DC0009A420CD22C4ABB681360F868FFF700FF08
:100DD000B868FFF77DFFBB6801225A7118E0FA7905
:100DE000BB799A4240D1284BD3E90012274B18CB4C
:100DF000A24208BF994237D11F4ABB681360F86806
:100E0000FFF7E6FEB868FFF763FFBB6801225A717F
:100E1000194B1B681A79174B1B681B799A420DD125
:100E2000154B1B685B8999B24FF00002174B18CB2A
:100E30005B1844EB0204144AC2E90034FB681A68E8
:100E4000FB68DB689A4205D3FB68DB681B68104AC5
:100E5000934204D0FB689B79184601F04FFC01F0E7
:100E600071F902E000BF00E000BF1437BD4690BD3D
:100E7000182B0020102B0020142B002015290020F7
:100E80001429002016290020202B0020B82C002037
:100E9000A5A55A5A80B582B000AF0F4B1B78DBB2C4
:100EA0000133DAB20C4B1A700C4B1B68002B03D1C8
:100EB000FFF75CF900230AE0084B1B687B60074BD7
:100EC0001B685B6A054A1360FFF750F97B68184698
:100ED0000837BD4680BD00BF152900200C2B00201F
:100EE00080B588B000AFF860B9607A603B607B681D
:100EF0001B0A9BB2C3F30B03BB837B68FB76FB68C7
:100F0000002B01D1FF236FE03B68002B01D1FF23B1
:100F10006AE0FB7E402B01D9FF2365E0BB8B132BDE
:100F200001D8FF2360E03A68B968F86801F032FB45
:100F30007861FFF7AFFF38613B69002B01D1FF23D8
:100F400052E03B697A691A603B69FA7E1A71BA8B82
:100F500013469B079B1A9B0004333A681A443B696B
:100F6000DA603B69DB68224A1A603B694FF0FF3266
:100F70001A623B6900225A623B6900229A627B68CE
:100F80001B0D9BB2C3F30A03FB83FB8B002B01D128
:100F90000A23FB833B69FA8B5A813B690022DA61A1
:100FA0003B69FF221A723B6900221A613B690022E9
:100FB0005A613B6900229A613B69FF22DA717B68C2
:100FC000002B0CDB0B4B1B78DBB20133DAB2094B85
:100FD0001A703869FFF7FCFDFFF7C8F802E03B69BB
:100FE00002225A713B699B7918462037BD4680BD65
:100FF000A5A55A5A1529002080B582B000AF394BFB
:101000001B78012B04D100F02BFD364B00221A7007
:10101000354B1B78012B52D1FFF702FC324B0022DB
:101020001A704CE001F080F8304B5B782F4ADB00FF
:1010300013443A46043393E8030082E803002B4B41
:101040005B785A1C2A4B83FB02135910D317C91A19
:101050000B469B000B44D11ACAB2244B5A70234B47
:101060001B78013BDAB2214B1A7001F055F83B783E
:10107000013B032B22D801A252F823F08D1000204F
:1010800097100020A5100020AF1000207B78184694
:1010900001F0F2FA13E07B787A681146184600F006
:1010A000F9F90CE07B78184601F0E0F807E07B786E
:1010B0007A681146184601F083F800E000BF0B4B38
:1010C0001B78002BAED101F02FF8084B1B78002BBA
:1010D00002D1084B00221A7001F01EF800BF083739
:1010E000BD4680BD552B0020562B0020282B00200C
:1010F00067666666542B002080B584B000AF7860C8
:101100007B68FB60FB680133FB60322000F070FC01
:10111000F8E700BF80B584B000AF78607B689B685B
:10112000FB60FB680133FB60322000F061FC0121B1
:101130004FF0904000F026FB0346002BF1D0152124
:101140000748FFF7D9FC322000F052FC00BF012114
:101150004FF0904000F016FB0346002BF7D1E0E77C
:101160001228002080B582B000AF7860074B4FF4A2
:1011700040729A61322000F03BFC044B4FF4407205
:101180001A85322000F034FCF0E700BF0008004868
:1011900080B500AF00F032F800F0B6F94FF4165009
:1011A000FFF792FBFFF738FCFFF71AFCFFF706F892
:1011B0000B4B4FF400427B210A48FFF791FE0A4B8C
:1011C00048F2010209490A48FFF78AFE094B48F232
:1011D000020200210848FFF783FEFFF72FF8FEE721
:1011E000C0320020F9100020BC2E0020AC270020C7
:1011F00015110020C03000206511002080B500AF1F
:1012000001214FF40030FFF71DF901214FF40020B8
:10121000FFF718F901214FF48040FFF731F9012160
:101220000120FFF70FF900BF80BD00BF0C488546C5
:10123000002103E00B4B5B58435004310A480B4B31
:1012400042189A42F6D30A4A02E00023136004329D
:10125000084B9A42F9D301F0F1F8FFF799FFFEE746
:1012600000500020B827002000280020402800203F
:1012700040280020C4320020FEE7000080B483B084
:1012800000AF78607B681A684FF6FE7313407A6887
:1012900013607B6800221A607B6800225A607B68BA
:1012A00000229A607B680022DA607B681C4A9342C5
:1012B00006D11C4A1B4B5B6843F00F0353602AE0C6
:1012C0007B68194A934206D1164A164B5B6843F075
:1012D000F00353601FE07B68144A934206D1114A21
:1012E000104B5B6843F47063536014E07B68104AF2
:1012F000934206D10B4A0B4B5B6843F47043536037
:1013000009E07B680B4A934205D1064A054B5B68AE
:1013100043F47023536000BF0C37BD4680BC704758
:1013200008000240000002401C0002403000024061
:10133000440002405800024080B485B000AF78609D
:1013400039600023FB607B681B68FB60FB6823F44B
:10135000FF4323F07003FB603B689A683B681B6A9D
:101360001A433B681B691A433B685B691A433B6835
:101370009B691A433B68DB691A433B685B6A1A4303
:101380003B689B6A1343FA681343FB607B68FA6807
:101390001A603B68DA687B685A603B681A687B6849
:1013A0009A603B685A687B68DA6000BF1437BD46B4
:1013B00080BC704780B483B000AF78600B46FB7090
:1013C000FB78002B06D07B681B6843F001027B682A
:1013D0001A6006E07B681A684FF6FE7313407A685D
:1013E000136000BF0C37BD4680BC704780B485B029
:1013F00000AFF860B9601346FB71FB79002B06D093
:10140000FB681A68BB681A43FB681A6006E0FB6851
:101410001A68BB68DB431A40FB681A6000BF1437C8
:10142000BD4680BC704700BF80B485B000AF786017
:101430000023FB73084B1A687B681340002B02D013
:101440000123FB7301E00023FB73FB7B1846143779
:10145000BD4680BC704700BF0000024080B483B02E
:1014600000AF7860034A7B68536000BF0C37BD460D
:1014700080BC70470000024080B483B000AF786049
:10148000034A7B68536000BF0C37BD4680BC704781
:101490000000024080B584B000AF03463960FB71A4
:1014A000FB79132B01D9012326E0FB791B01144A98
:1014B0001344FB60FB685B7903F00F03DBB2022B84
:1014C00001D0012318E0FB68DB88002B13D10D4B02
:1014D0001B78DBB20133DAB20A4B1A70FB683A6848
:1014E0001A60FB680122DA80F86800F049FBFEF719
:1014F0003DFE002300E0072318461037BD4680BD9F
:101500005C2B00201529002080B582B000AF4FF081
:10151000904000F047F8012209214FF0904000F080
:101520004DF901220A214FF0904000F047F94FF4A5
:10153000C0633B6002233B710023BB7103237B71BB
:101540000023FB713B4619464FF0904000F084F8B1
:10155000FF233B6000233B710023BB7103237B719E
:101560000023FB713B4619464FF0904000F074F8A1
:101570000B4800F017F840F2FF333B6001233B714A
:101580000023BB7103237B710023FB713B4619468B
:10159000034800F061F800BF0837BD4680BD00BFBA
:1015A0000008004880B582B000AF78607B68B3F176
:1015B000904F0AD101214FF40030FEF77FFF002148
:1015C0004FF40030FEF77AFF3AE07B681E4A934200
:1015D0000AD101214FF48020FEF770FF00214FF463
:1015E0008020FEF76BFF2BE07B68184A93420AD1FC
:1015F00001214FF40020FEF761FF00214FF400208D
:10160000FEF75CFF1CE07B68114A93420AD101217E
:101610004FF48010FEF752FF00214FF48010FEF7C8
:101620004DFF0DE07B680B4A934209D101214FF435
:101630008000FEF743FF00214FF48000FEF73EFFDD
:1016400000BF0837BD4680BD0004004800080048C0
:10165000000C00480014004880B487B000AF7860E8
:10166000396000237B6100233B610023FB60002382
:101670007B617EE001227B6902FA03F33B613B68F8
:101680001A683B691340FB60FA683B699A426DD166
:101690003B681B79012B03D03B681B79022B36D1A9
:1016A0007B689A687B695B00032101FA03F3DB43E3
:1016B0001A407B689A607B689A683B685B79194638
:1016C0007B695B0001FA03F31A437B689A607B68CD
:1016D0009B889AB27B699BB2012101FA03F39BB20A
:1016E000DB439BB213409AB27B689A807B689B88ED
:1016F0009BB29AB23B689B7919467B699BB201FA0F
:1017000003F39BB213439BB29AB27B689A807B68C7
:101710001A687B695B00032101FA03F3DB431A407B
:101720007B681A607B681A683B681B7919467B697D
:101730005B0001FA03F31A437B681A607B68DA687E
:101740007B699BB25B00032101FA03F3DB431A4080
:101750007B68DA607B68DA683B68DB7919467B690D
:101760005B0001FA03F31A437B68DA607B6901339B
:101770007B617B690F2B7FF67DAF00BF1C37BD46B9
:1017800080BC704780B485B000AF78600B467B802A
:101790000023FB737B681B8A9AB27B8813409BB241
:1017A000002B02D00123FB7301E00023FB73FB7BC2
:1017B00018461437BD4680BC704700BF80B485B062
:1017C00000AF78600B467B8013467B700023FB6084
:1017D0000023BB607A787B8803F007039B0002FA42
:1017E00003F3FB607B88DB089BB218467B88DB0831
:1017F0009BB21A467B68083253F822207B8803F09C
:1018000007039B000F2101FA03F3DB4302EA030104
:101810007B6800F1080243F822107B88DB089BB24A
:101820001A467B68083253F82220FB681343BB60DA
:101830007B88DB089BB21A467B680832B96843F89C
:10184000221000BF1437BD4680BC704780B485B0FD
:1018500000AF786039603B68002B65D0354B1B6862
:10186000002B06D17B683A681A62324A7B681360A3
:1018700053E0304B1B68BB603B68FB604AE0FA6892
:10188000BB681B6AD31AFB60FB68002B2EDABB68AF
:101890009B6A002B0ED0BB689B6A7A685A62BB6851
:1018A0009A6A7B689A627B68BA685A62BB687A688F
:1018B0009A620AE01F4B1A687B685A621D4B1B68CC
:1018C0007A689A621B4A7B6813607B685B6A1A6A53
:1018D000FB681A447B681A627B685B6A7A68526AA2
:1018E000116A7A68126A8A1A1A6216E0FB68002B7B
:1018F0000DDBBB685B6A002B09D17B68BA689A6212
:10190000BB687A685A62FA687B681A6205E0BB684D
:101910005B6ABB60BB68002BB1D17B6802225A7145
:10192000054B01221A7000E000BF1437BD4680BC91
:10193000704700BF582B00201629002080B483B0C8
:1019400000AF78607B689B6A002B07D17B685B6A7D
:10195000002B03D1254B00221A603DE07B689B6A77
:10196000002B14D17B685B6A204A13607B685B6A3A
:101970007A68526A116A7A68126A0A441A627B6843
:101980005B6A00229A627B6800225A6224E07B68CC
:101990005B6A002B07D17B689B6A00225A627B68D6
:1019A00000229A6218E07B689B6A7A68526A5A62DF
:1019B0007B685B6A7A68926A9A627B685B6A7A681B
:1019C000526A116A7A68126A0A441A627B680022B3
:1019D0005A627B6800229A627B684FF0FF321A627B
:1019E00000BF0C37BD4680BC704700BF582B00209D
:1019F00080B582B000AF7860164B1B78DBB2002B4D
:101A000001D0032321E07B68B3F1FF3F01D1022322
:101A10001BE07B68002B01D1002316E00E4B1B78E6
:101A2000DBB2002B01D015230FE00B4B1B78DBB290
:101A30000133DAB2084B1A70084B1B6879681846F4
:101A4000FFF704FFFEF792FB002318460837BD4658
:101A500080BD00BF1429002015290020182B00206C
:101A600080B582B000AF1B4B1B687B6026E07B68B3
:101A70001B7AFF2B02D0786800F0E8F87B68DB69FE
:101A8000002B04D07B68DB69184600F095FC7B686E
:101A90004FF0FF321A627B685B6A0E4A13607B6804
:101AA00000225A627868FFF793F80A4B1B687B6044
:101AB0007B68002B02D07B6800229A627B68002B37
:101AC00003D07B681B6A002BD1D000BF0837BD460E
:101AD00080BD00BF582B002080B500AF074B1B789E
:101AE000DBB2012B06D9064B01221A70054B0122ED
:101AF0001A7001E0FFF7B4FF00BF80BD1529002078
:101B0000542B0020552B002080B485B000AF00235B
:101B1000FB73184BBB60184B7B6014E0BB687A68A2
:101B20001A60BB68FA7B1A71BA685379042161F3B1
:101B300003035371BB681033BB607B6810337B6059
:101B4000FB7B0133FB73FB7B122BE7D9BA6853791C
:101B5000042161F303035371BB6800221A60BB6860
:101B6000FA7B1A71054B034A1A6000BF1437BD4651
:101B700080BC70475C2B00206C2B00209C2C00202C
:101B800080B584B000AF78607B68DB68FB60FB6881
:101B9000002B54D0FB685A697B68DA607B68DB688D
:101BA000002B03D07B68DB6800229A61FB6800226F
:101BB0005A61FB68FF221A72FB681B6AB3F1FF3F90
:101BC00002D0F868FFF7BAFE7B685B7903F00F0379
:101BD000DBB2022B07D17B681A68FB681A617B684D
:101BE00000221A601EE07B685B7903F00F03DBB212
:101BF000032B0CD17B681B68BB60BB681A68BB6891
:101C0000DB889B0013441A68FB681A610AE07B6852
:101C10005B7903F00F03DBB2012B03D1FB684FF0BC
:101C2000FF321A61084B1B68FA689A4203D1FB68BD
:101C300001225A7104E0F868FEF7CAFF00E000BF15
:101C40001037BD4680BD00BF182B002080B485B082
:101C500000AF78607B681B7A1B01214A1344FB604C
:101C60007B685B69002B07D17B689B69002B03D1E4
:101C7000FB680022DA602BE07B689B69002B0BD1AC
:101C80007B685B6900229A617B685A69FB68DA604D
:101C90007B6800225A611BE07B685B69002B07D1DF
:101CA0007B689B6900225A617B6800229A610FE081
:101CB0007B689B697A6852695A617B685B697A685C
:101CC00092699A617B6800229A617B6800225A615E
:101CD0007B68FF221A7200BF1437BD4680BC704774
:101CE0005C2B002080B582B000AF78607B68104A22
:101CF00093420AD101214FF48040FEF7FDFB002101
:101D00004FF48040FEF7F8FB0DE07B68094A9342F0
:101D100009D101214FF40030FEF70CFC00214FF4F3
:101D20000030FEF707FC00BF0837BD4680BD00BF8E
:101D3000003801400044004080B58CB000AF7860AE
:101D400039600023FB620023BB6200237B627B6857
:101D50001B6823F001027B681A607B685B687B620A
:101D60007B6A23F440537B623B689B687A6A134327
:101D70007B627B687A6A5A607B681B687B627B6ADD
:101D800023F4B05323F00C037B623B685A683B6832
:101D9000DB681A433B681B6913437A6A13437B620F
:101DA0007B687A6A1A607B689B687B627B6A23F433
:101DB00040737B623B685B697A6A13437B627B6832
:101DC0007A6A9A6007F108031846FEF753FA7B68AF
:101DD000284A934202D13B6ABB6201E03B69BB6285
:101DE0007B681B6803F40043002B11D0BB6A5A00C8
:101DF0003B681B68B2FBF3F3FB62BB6A5B003A68AB
:101E00001268B3FBF2F102FB01F29B1A7B620EE057
:101E10003B681B68BA6AB2FBF3F3FB623B681A6863
:101E2000BB6AB3FBF2F102FB01F29B1A7B623B68D7
:101E30001B685A087B6A9A4202D8FB6A0133FB622C
:101E40007B681B6803F40043002B0BD0FB6A5B0824
:101E500003F007037B62FA6A4FF6F07313407A6A65
:101E60001343FB62FB6A9AB27B689A8100BF3037EA
:101E7000BD4680BD0038014080B483B000AF7860BB
:101E80000B46FB70FB78002B06D07B681B6843F089
:101E900001027B681A6005E07B681B6823F0010281
:101EA0007B681A6000BF0C37BD4680BC704700BF1E
:101EB00080B483B000AF78600B46FB70FB78002BDA
:101EC00006D07B685B6843F400027B685A6005E0DB
:101ED0007B685B6823F400027B685A6000BF0C37A4
:101EE000BD4680BC704700BF80B483B000AF78604F
:101EF00039607B685B6903F07F427B685A617B686D
:101F00005A693B681A437B685A6100BF0C37BD466B
:101F100080BC704780B485B000AFF860B9601346EC
:101F2000FB71FB79002B06D0FB689A68BB681A43EB
:101F3000FB689A6006E0FB689A68BB68DB431A405E
:101F4000FB689A6000BF1437BD4680BC704700BF75
:101F500080B489B000AFF860B9601346FB7100230C
:101F6000BB6100237B6100233B610023FB61FB68B5
:101F7000FB61BB681B12DBB2BB61BB68DBB27B6180
:101F800001227B6902FA03F33B61BB69022B03D197
:101F9000FB690433FB6105E0BB69032B02D1FB69DC
:101FA0000833FB61FB79002B06D0FB69FA691168E5
:101FB0003A690A431A6006E0FB69FA6911683A69EE
:101FC000D2430A401A6000BF2437BD4680BC704728
:101FD00080B483B000AF786039607B683A681A6279
:101FE00000BF0C37BD4680BC704700BF80B487B0CF
:101FF00000AF786039600023FB6000237B61002321
:10200000BB600023FB743B681B12DBB2BB603B6808
:10201000DBB27B6101227B6902FA03F37B61BB685F
:10202000012B05D17B681B687A6913407B610DE049
:10203000BB68022B05D17B685B687A6913407B61C2
:1020400004E07B689B687A6913407B613B681B0CEA
:10205000FB600122FB6802FA03F3FB607B68DB692B
:10206000FA681340FB607B69002B05D0FB68002BEE
:1020700002D00123FB7401E00023FB74FB7C1846B3
:102080001C37BD4680BC704780B485B000AF786017
:1020900039600023FB600023BB603B681B0CFB60C6
:1020A0000122FB6802FA03F3BB607B68BA681A621C
:1020B00000BF1437BD4680BC704700BF90B482B0EB
:1020C00000AF78607B6802B472B6197801F1010143
:1020D000197062B6A1F101010B0002BCDCB223460B
:1020E00018460837BD4690BC704700BF90B482B018
:1020F00000AF78607B6802B472B61978A1F1010173
:10210000197062B60B0002BCDCB2234618460837D1
:10211000BD4690BC704700BF80B400AF62B600BF40
:10212000BD4680BC704700BF80B400AF72B600BF30
:10213000BD4680BC704700BFA0F11C0080F3098839
:10214000704700BF034B1B68034A11681960704752
:1021500000BF00003428002038280020144B1968E4
:10216000144A126891421AD0EFF30980A0F12000BE
:102170000860F0C044464D4656465F46F0C01A60BF
:10218000106800F11000F0C8A046A946B246BB4650
:10219000A0F12000F0C800F1100080F30988064B80
:1021A0004FF000001870054B1868004700BF000092
:1021B000182B0020142B0020152900203C2800207B
:1021C00080B584B000AF03463960FB71FB79132BF7
:1021D00001D9012342E0FB791B01224A1344FB6031
:1021E000FB685B7903F00F03DBB2032B01D0012303
:1021F00034E0FB681B68BB60BB689A89BB685B897D
:102200009A4201D1082329E0174B1B78DBB2013336
:10221000DAB2154B1A70BB681A68BB681B899B0041
:1022200013443A681A60BB681B8901339AB2BB68D1
:102230001A81BB689B8901339AB2BB689A81BB68DB
:102240001A89BB685B899A4202D1BB6800221A8155
:10225000F868FFF795FCFDF789FF00231846103753
:10226000BD4680BD5C2B00201529002080B584B0C0
:1022700000AF0346FB71394BBB60FB791F2B01D9C3
:10228000012366E0BB689B68FA79012101FA02F23A
:102290001340002B01D101235BE0BB681B68FA7976
:1022A000012101FA02F21340002B01D0002350E07B
:1022B000BB681B68FA79012101FA02F21A43BB6874
:1022C0001A60274B1B78DBB20133DAB2244B1A7049
:1022D000BB68DB68FB6032E0FB681B7C002B16D11F
:1022E000FB689A68BB681B681A40FB689B689A4247
:1022F00022D1F86800F036F8F860BB685B68FA79BC
:10230000012101FA02F21340002B1CD117E0FB68F7
:102310009A68BB681B681340002B0DD0F86800F06A
:1023200021F8F860BB685B68FA79012101FA02F2D2
:102330001340002B09D102E0FB681B68FB60FB68BF
:10234000002BC9D102E000BF00E000BFFDF70EFF87
:10235000002318461037BD4680BD00BFA02C0020CA
:102360001529002080B584B000AF7860786800F04F
:1023700023F87B68DB68FB60FB681B6AB3F1FF3FF7
:1023800002D0F868FFF7DAFAFB684FF0FF32DA6143
:10239000084B1B68FA689A4203D1FB6801225A7104
:1023A00002E0F868FEF714FC7B681B6818461037DB
:1023B000BD4680BD182B002080B483B000AF78608C
:1023C0007B681B68002B0AD17B685B68002B06D1F9
:1023D000194B0022DA60184B00221A6123E07B6857
:1023E0001B68002B08D17B685B68134A13617B680C
:1023F0005B6800221A6016E07B685B68002B08D1DE
:102400007B681B680C4AD3607B681B6800225A609B
:1024100009E07B681B687A6852685A607B685B6871
:102420007A6812681A607B68DB680022DA6100BF94
:102430000C37BD4680BC7047A02C002080B500AF93
:102440001D4A1D4B1B6843F0010313601A491A4BC8
:102450005A681A4B13404B60174A174B1B6823F0FE
:10246000847323F480331360134A134B1B6823F4E3
:1024700080231360104A104B5B6823F47C13536075
:102480000D4A0D4BDB6A23F00F03D3620A4A0A4B55
:102490001B6B23F4A97323F001031363064A064B55
:1024A0005B6B23F001035363034B00229A6000F03F
:1024B00007F800BF80BD00BF001002400CB8FFF855
:1024C00080B483B000AF00237B6000233B602F4AC1
:1024D0002E4B1B6843F4803313602C4B1B6803F4B2
:1024E00000333B607B6801337B603B68002B03D18A
:1024F0007B68B3F5A04FF0D1244B1B6803F4003385
:10250000002B02D001233B6001E000233B603B68CD
:10251000012B36D11E4B11221A601C4A1B4B5B68E3
:1025200053601A4A194B5B685360184A174B5B6833
:1025300023F47C135360154A144B5B6843F48813EF
:102540005360124A114B1B6843F08073136000BF45
:102550000E4B1B6803F00073002BF9D00B4A0B4B9A
:102560005B6823F003035360084A084B5B6843F041
:102570000203536000BF054B5B6803F00C03082B9C
:10258000F9D100BF0C37BD4680BC70470010024037
:102590000020024080B487B000AFF860B9607A6074
:1025A0007B687B617B691A1F7A614FF080721A60C9
:1025B0007B691A1F7A61FA681A607B696FF0010201
:1025C0001A607B69143B7B61BA687B691A607B691E
:1025D000203B7B617B6918461C37BD4680BC704739
:1025E00098B500AF1F4B1B78DBB20133DAB21D4B3D
:1025F0001A701D4B18CB013344F100041A4AC2E98A
:1026000000341A4B1B68002B10D0184B1B681B6A38
:10261000012B05D9154B1B681A6A013A1A6205E0AD
:10262000124B1B6800221A62FFF756FA104B1B6808
:10263000002B10D00E4B1B685B68012B05D90C4B8F
:102640001B685A68013A5A6005E0094B1B68002272
:102650005A60FEF721F9074B01221A70FDF786FD3B
:1026600000BF98BD15290020B82C0020582B002051
:10267000482900201629002080B584B000AF034609
:10268000FB71FB79132B01D9012328E0FB791B0196
:10269000154A1344FB60FB685B7903F00F03DBB260
:1026A000012B01D001231AE0FB68DA88FB681B8943
:1026B0009A4201D1062312E00C4B1B78DBB20133A6
:1026C000DAB20A4B1A70FB68DB8801339AB2FB68F6
:1026D000DA80F868FFF754FAFDF748FD0023184642
:1026E0001037BD4680BD00BF5C2B0020152900209F
:1026F00080B483B000AF7860FEE700BF80B483B0E1
:1027000000AF0346FB71FEE780B485B000AF786090
:102710000023FB607B689B78002B35D0224A7B68C6
:102720001B789B08DBB2C03352F82330FB607B6818
:102730001B7803F00303DB00FF2202FA03F3DB4301
:10274000FA681340FB607B685B789B01DAB27B68B8
:102750001B7803F00303DB0002FA03F3FA68134368
:10276000FB6011497B681B789B08DBB2C033FA68B9
:1027700041F823200C4A7B681B7803F01F030121DA
:1027800001FA03F3136009E0074A7B681B7803F042
:102790001F03012101FA03F3C2F8803000BF143790
:1027A000BD4680BC704700BF00E100E05901000059
:0827B00014000000820000008B
:1027B80000000000010203040102030406070809DF
:1027C80000157561727431207472616E736D69746D
:1027D80020646174610D0A00000000000000000020
:1027E8000000000004ED00E000000010FCFFFFFF07
:0400000520000000D7
:00000001FF
