:020000040800F2
:1000000000200020BD110008091200080912000894
:1000100000000000000000000000000000000000E0
:1000200000000000000000000000000009120008AD
:1000300000000000000000006920000805250008FD
:100040000912000809120008091200080912000824
:100050000912000809120008091200080912000814
:100060000912000809120008091200080912000804
:1000700009120008091200080912000809120008F4
:100080000912000809120008000000000912000807
:1000900009120008091200080912000809120008D4
:1000A0000912000809120008091200087109000865
:1000B00009120008000000000912000800000000FA
:1000C0005FF808F180B500AF0C4A0D4B1A600B4B7E
:1000D000C8331A1C0A4B5A600A4B084A1A60094B6B
:1000E0001B6800221A60074B1B6800225A60054BF0
:1000F0001B6800229A60BD4680BDC04640000020BB
:100100000C0100200801002080B500AF024B181C34
:1001100001F066FFBD4680BD1401002080B500AF30
:100120000F4B181C01F072FF0D4B1B78DBB2002B3C
:1001300014D10C4B1B78DBB2012B0FD10A4B1B786F
:10014000DBB20133DAB2084B1A7000F0B7FD064B90
:100150001B78DBB2013BDAB2034B1A70BD4680BD9F
:1001600014010020160100201501002080B500AF09
:100170000F4B1B78DBB2012B10D10E4B1B78012BE0
:1001800001D100F015FF0C4B1B78DBB2012B01D124
:1001900000F094FD064B00221A7006E0044B1B7819
:1001A000DBB2013BDAB2024B1A70BD4680BDC046DD
:1001B000150100200C0300201601002080B500AFBF
:1001C000164B174A1A60174B07221A60164B164A2D
:1001D0001268FF2109060A431A60144B134A126879
:1001E00013490A431A6000F063FC01F009FCFFF7B1
:1001F00069FF104B1B78DBB20133DAB20D4B1A707A
:100200000D49CA235A010D4B081C002100F028FE9D
:100210000A4B181C01F01AFFBD4680BD14E000E037
:10022000FF52070010E000E01CED00E020ED00E0D0
:100230000000FFFF1501002021260008C002002059
:1002400080B500AF094B0A4A1A60084B1A68094B7F
:100250001A60064B1B6801225A71044B1B68181C5C
:1002600000F0EAFCFFF782FFBD4680BDD00200200F
:1002700058010020CC02002080B588B000AF786023
:100280000023FB610023BB6100237B6100233B61F2
:100290000023FB60654B5B680C221340FB61FB692C
:1002A000042B07D0082B09D0002B31D17B68604A82
:1002B0001A6031E07B685E4A1A602DE05B4B5A6839
:1002C000F0239B031340BB61584B5A6880235B02A9
:1002D00013407B61BB699B0C0233BB617B69002BC4
:1002E00005D1BB69534A5A437B681A6014E04F4BEF
:1002F000DB6A0F22134001333B614D48396902F03C
:100300009DF9031C1A1CBB695A437B681A6003E001
:100310007B68474A1A60C046444B5B68F022134032
:10032000FB61FB691B09FB61434AFB69D3181B781E
:10033000DBB2FB607B681A68FB68DA407B685A6056
:100340003A4B5A68E023DB001340FB61FB691B0A50
:10035000FB61394AFB69D3181B78DBB2FB607B6811
:100360005A68FB68DA407B689A60304B1A6B8023CE
:100370005B00134003D17B68304ADA6010E02B4BFE
:100380005A688023DB01134005D17B689B685A08BB
:100390007B68DA6004E07B689B689A087B68DA60B7
:1003A000224B1B6B4022134003D17B68244A1A6105
:1003B00003E07B68802212021A611C4B1B6B102227
:1003C000134003D17B681A4A5A6103E07B681A68BC
:1003D0007B685A61154B1B6B0322134004D17B6869
:1003E0009A687B689A611EE0104B1B6B03221340D6
:1003F000012B04D17B681A687B689A6113E00B4B70
:100400001B6B03221340022B04D17B688022120253
:100410009A6108E0054B1B6B03221340032B02D1AA
:100420007B68034A9A61BD4608B080BD0010024057
:1004300000127A0000093D0000000020809FD500D6
:100440001280000080B582B000AF78600A1CFB1CEF
:100450001A70FB1C1B78002B06D0084B074A516909
:100460007A680A435A6106E0044B044A5269796883
:10047000C9430A405A61BD4602B080BD0010024027
:1004800080B582B000AF78600A1CFB1C1A70FB1CA0
:100490001B78002B06D0084B074A91697A680A43FB
:1004A0009A6106E0044B044A92697968C9430A409C
:1004B0009A61BD4602B080BD0010024080B582B096
:1004C00000AF78600A1CFB1C1A70FB1C1B78002B09
:1004D00006D0084B074A916A7A680A439A6206E096
:1004E000044B044A926A7968C9430A409A62BD463D
:1004F00002B080BD0010024080B582B000AF7860CD
:100500000A1CFB1C1A70FB1C1B78002B06D0084B26
:10051000074AD1687A680A43DA6006E0044B044A65
:10052000D2687968C9430A40DA60BD4602B080BD2E
:100530000010024080B582B000AF78600A1CFB1C3E
:100540001A70FB1C1B78002B06D0084B074A116958
:100550007A680A431A6106E0044B044A1269796812
:10056000C9430A401A61BD4602B080BD0010024076
:1005700090B587B000AF021CFB1D1A70FB1D1A78E6
:100580007649131C5B009B18DB00CB185B68FB6093
:10059000FB68002B00D1DDE0714B1B78DBB201332F
:1005A000DAB26F4B1A706F4B1B68002B0AD1FB1D20
:1005B0001A78131C5B009B18DB00684A9A18694B79
:1005C0001A60C5E0674B1B687B61FB683B61BBE061
:1005D0003A697B695B68D31A3B613B69002B00DB9E
:1005E00088E07B695B69002B2CD07B695A69FB1D15
:1005F00019780B1C5B005B18DB0058495B18136112
:10060000FB1D1A787B6959695448131C5B009B18C1
:10061000DB00C31810335960FB1D1A784F49131CB7
:100620005B009B18DB00CB1810337A691A60FB1D46
:100630001A78131C5B009B18DB00484A9A187B69E8
:100640005A6120E0FB1D1A78464B19684348131C79
:100650005B009B18DB00C31810331960414B1A680C
:10066000FB1D19780B1C5B005B18DB003B495B181A
:100670005361FB1D1A78131C5B009B18DB00374A83
:100680009A18384B1A60FB1D1A78FB1D19783348ED
:100690000B1C5B005B18DB00C31810331B68596828
:1006A0003B69C9182D48131C5B009B18DB00C3185D
:1006B0005960FB1D1A782949131C5B009B18DB004D
:1006C000CB1810331A68FB1D197824480B1C5B00EB
:1006D0005B18DB00C31810331B685868FB1D1978C2
:1006E0001E4C0B1C5B005B18DB00E3185B68C31A35
:1006F00053602DE03B69002B23DB7B691B69002BDA
:100700001FD1FB1D1A781549131C5B009B18DB00D9
:10071000CB1810337A695A60FB1D1A78131C5B00E2
:100720009B18DB000D4A9A187B691A61FB1D1A7829
:1007300039690A48131C5B009B18DB00C318596019
:1007400006E07B691B697B617B69002B00D03FE77A
:10075000FFF70CFDBD4607B090BDC0461801002054
:10076000150100204801002080B584B000AF021CB4
:10077000FB1D1A70FB1D1A78131C5B009B18DB0015
:100780002C4A9B18FB602C4B1B78DBB20133DAB28E
:10079000294B1A70FB685B69002B07D1FB681B694A
:1007A000002B03D1254B00221A603DE0FB685B69FA
:1007B000002B14D1FB681A69204B1A601F4B1B6871
:1007C00000225A61FB681B69FA6812695168FA686D
:1007D00052688A185A60FB6800221A6124E0FB689C
:1007E0001B69002B07D1FB685B6900221A61FB685B
:1007F00000225A6118E0FB685B69FA6812691A61A5
:10080000FB681B69FA6852695A61FB681B69FA68E0
:1008100012695168FA6852688A185A60FB680022A7
:100820001A61FB6800225A61FFF7A0FCBD4604B0C4
:1008300080BDC0461801002015010020480100209D
:1008400080B582B000AF1B4B1B687B6027E07B68E4
:100850005B78002B0BD17B681B78181CFFF784FF9B
:100860007B6801229A707B68DB68984714E07B689C
:100870005B78012B10D17B681B78181CFFF774FF85
:100880007B689A687B685A607B681B78181CFFF746
:100890006FFE7B68DB689847064B1B687B607B6854
:1008A000002B03D07B685B68002BD0D0BD4602B024
:1008B00080BDC0464801002080B500AF074B1B78C3
:1008C000DBB2012B06D9064B01221A70054B01221F
:1008D0001A7001E0FFF7B4FFBD4680BD150100208E
:1008E0000C0300200E03002080B588B000AF7860B4
:1008F0001D4B181C01F07EF90823FB187A681A605A
:100900000823FB1800225A600823FB1800229A6073
:100910000823FB180022DA600823FB1800225A6122
:100920000823FB180C221A610F4A0823FB18101C1D
:10093000191C01F08BF90C4B181C232101F06EFAE5
:10094000094B181C012101F04BFA074A074B101CF8
:10095000191C012201F092FA034B181C012101F02D
:1009600023FABD4608B080BD003801401A010B00D3
:1009700080B500AFFFF7C8FB0A4A0B4B101C191CCF
:1009800001F0BEFA031E02D0084B01221A70054A7C
:10099000054B101C191C01F00BFBFFF7BFFBBD46FC
:1009A00080BDC046003801401A010B0050010020F4
:1009B00080B58CB000AF364B181C00F027FC3B1DF7
:1009C000344A1A60344A3B1D5A603B1D00229A602B
:1009D0003B1D2022DA603B1D00221A613B1D802254
:1009E0005A613B1D00229A613B1D0022DA613B1DCA
:1009F00020221A623B1D802292015A623B1D002276
:100A00009A62234A3B1D101C191C00F05FFC204B0E
:100A1000181C012100F096FC204B181C00F0F6FB7E
:100A20003B1D1F4A1A601F4A3B1D5A603B1D102286
:100A30009A601D4B5B781A1C3B1DDA603B1D00223F
:100A40001A613B1D80225A613B1D00229A613B1DA9
:100A50000022DA613B1D00221A623B1D80225201F6
:100A60005A623B1D00229A620C4A3B1D101C191C45
:100A700000F02CFC094B181C012100F063FC0B4B0F
:100A8000181CC021012201F0DDF9BD460CB080BD6B
:100A900030000240243801407B0400201C0002404A
:100AA00028380140120000201000002000380140CA
:100AB00080B584B000AF1A4BBB601A4B7B600F232C
:100AC000FB1800221A7017E0BB680F22BA181278C0
:100AD0009A71BB6803225A71BB687A685A62BB6814
:100AE0002C33BB607B682C337B600F23FB181A7898
:100AF0000F23FB1801321A700F23FB181B78042BED
:100B0000E2D9BB680F22BA1812789A71BB6800222A
:100B10005A62054B024A1A60BD4604B080BDC04609
:100B20005801002084010020C4020020F0B587B0E5
:100B300000AF78600F23FB187A6812791A707B680F
:100B400000225A71374B1B683B613B691B790F22AE
:100B5000BA1812789A421ED13A697B689A421AD022
:100B60003B69002B17D0304B5C681B682F4A11681B
:100B70005268A24202D80ED199420CD93B695B89D6
:100B80001D1C00231E1C294B5C681B685B197441EB
:100B9000254A13605460264B1B683B613B69002B60
:100BA00006D1244B01221A70214B7A681A6036E074
:100BB0003B691B790F22BA1812789A420CD21D4B4E
:100BC00001221A707B683A695A623B697A689A62B4
:100BD000174B7A681A6022E03B695B6A7B610CE024
:100BE0007B691B790F22BA1812789A4200D207E06B
:100BF0007B693B617B695B6A7B617B69002BEFD121
:100C00007B687A695A623B697A685A627B683A699A
:100C10009A627B69002B02D07B697A689A62BD4632
:100C200007B0F0BDD0020020D802002070040020E0
:100C3000C80200201601002080B582B000AF7860A5
:100C40007B685B6A002B07D17B689B6A002B03D112
:100C5000194B00221A602BE07B689B6A002B0BD19A
:100C60007B685A6A144B1A607B6800225A62124BE6
:100C70001B6800229A621BE07B685B6A002B07D12D
:100C80007B689B6A00225A627B6800229A620FE0AE
:100C90007B689B6A7A68526A5A627B685B6A7A6888
:100CA000926A9A627B6800225A627B6800229A628A
:100CB000BD4602B080BDC046C8020020F0B585B078
:100CC00000AF4B4B1B68FB604A4B1B68BB60BB68AB
:100CD000002B0ED0484B1B68FA689A4209D1474B4B
:100CE0001B78DBB2012B04D8454B1B78DBB2002B01
:100CF00000D079E0434B00221A70FB1DFA6812798C
:100D00001A70BB1DBA6812791A70FB685B79012BE7
:100D10000AD0394BBA681A60BB6801225A71BB68A5
:100D2000181CFFF789FF34E0BA1DFB1D12781B78F1
:100D30009A420ED2304BBA681A60FB68181CFFF753
:100D4000F5FEBB68181CFFF777FFBB6801225A71DC
:100D50001FE0FA1DBB1D12781B789A4218D12A4B4E
:100D600019685A68294B5C681B6899423BD1A242BA
:100D70000ED1214BBA681A60FB68181CFFF7D6FE2B
:100D8000BB68181CFFF758FFBB6801225A7100E0CE
:100D900029E0194B1B681A79164B1B681B799A427C
:100DA0000DD1154B1B685B891D1C00231E1C174BA6
:100DB0005C681B685B197441134A13605460FB68DC
:100DC0001A68FB68DB689A4205D3FB68DB681B681E
:100DD0000F4A934204D0FB689B79181C01F026FC53
:100DE00001F038F900E0C046BD4605B0F0BDC04690
:100DF000D0020020C8020020CC02002015010020F3
:100E00001401002016010020D802002070040020E8
:100E1000A5A55A5A80B582B000AF0F4B1B78DBB244
:100E20000133DAB20C4B1A700C4B1B68002B03D148
:100E3000FFF79CF900230AE0084B1B687B60074B17
:100E40001B685A6A054B1A60FFF790F97B68181CFB
:100E5000BD4602B080BDC04615010020C40200207E
:100E600080B588B000AFF860B9607A603B607B689D
:100E70004B4A13401A0A1C23FB181A801B23FB1829
:100E80007A681A70FB68002B01D1FF2384E03B686D
:100E9000002B01D1FF237FE01B23FB181B78402B85
:100EA00001D9FF2378E01C23FB181B88132B01D8E2
:100EB000FF2371E0F968BA683B68081C111C1A1C12
:100EC00001F0FAFA031C7B61FFF7A4FF031C3B61EE
:100ED0003B69002B01D1FF235EE03B697A691A6010
:100EE0003B691B22BA1812781A711C23FB181A8846
:100EF000131C9B079B1A9B0004333A68D2183B696A
:100F0000DA603B69DB68274A1A603B69012252427A
:100F10001A623B6900225A623B6900229A627B682E
:100F2000214A13401A0D1E23FB181A801E23FB189A
:100F30001B88002B03D11E23FB180A221A803B6951
:100F40001E22BA1812885A813B690022DA613B6975
:100F5000FF221A723B6900221A613B6900225A6122
:100F60003B6900229A613B69FF22DA717B68002BA2
:100F70000DDB0E4B1B78DBB20133DAB20B4B1A7070
:100F80003B69181CFFF7D2FDFFF7F0F802E03B6960
:100F900002225A713B699B79181CBD4608B080BD7E
:100FA00000FF0F00A5A55A5A0000FF7F1501002081
:100FB00080B582B000AF384B1B78012B04D100F014
:100FC000CBFC354B00221A70344B1B78012B04D11B
:100FD000FFF736FC314B00221A704BE001F030F87D
:100FE0002F4B5B78381C2E4ADB000421D3185A188B
:100FF000031C03CA03C32A4B5B780133181C052169
:1010000001F092FC0B1CDAB2254B5A70244B1B7872
:10101000013BDAB2224B1A7001F00CF83B1C1B7832
:10102000022B0ED002DC012B05D022E0032B11D0C5
:10103000042B15D01DE03B1C5B78181C01F0B0FAA6
:1010400018E03B1C5A783B1C5B68101C191C00F014
:1010500097F90FE03B1C5B78181C01F08BF809E056
:101060003B1C5A783B1C5B68101C191C01F028F8CB
:1010700000E0C0460A4B1B78002BAFD100F0E0FF28
:10108000074B1B78002B02D1064B00221A7000F090
:10109000D1FFBD4602B080BD0D0300200E0300202D
:1010A000E00200200C03002080B584B000AF78601F
:1010B0007B68FB60FB680133FB60322000F014FCAE
:1010C000F8E7C04680B584B000AF78607B689B6865
:1010D000FB60FB680133FB60322000F005FCF8E7A1
:1010E00080B582B000AF7860074BC02292009A6151
:1010F000322000F0F9FB044BC02292001A85322006
:1011000000F0F2FBF0E7C0460008004898B500AFD9
:1011100000F03AF800F072F996239B01181CFFF7D3
:10112000E3FBFFF745FCFFF749F80E4980231A025D
:101130000D4B081C7B21FFF793FE0C490C4A0D4C0C
:101140000D4B081C111C221CFFF78AFE0B4A0C4C8D
:101150000C4B101C0021221CFFF782FEFFF770F8D9
:10116000FEE7C046A91000089C0A0020C510000830
:1011700040290008018000009C060020E1100008C2
:10118000028000009C08002080B500AF80239B02F5
:10119000181C0121FFF756F980231B03181C01219D
:1011A000FFF750F98023DB01181C0121FFF768F9D4
:1011B00001200121FFF746F9BD4680BD0C48854658
:1011C000002103E00B4B5B58435004310A480B4BA2
:1011D00042189A42F6D30A4A02E00023136004320E
:1011E000084B9A42F9D301F0B1F8FFF78FFFFEE701
:1011F000002000204C2900080000002040000020B2
:1012000040000020A00A0020FEE7000080B582B068
:1012100000AF78607B681B68254A1A407B681A60BB
:101220007B6800221A607B6800225A607B6800227B
:101230009A607B680022DA607B681E4A934206D17E
:101240001D4B1D4A52680F210A435A602DE07B68EE
:101250001A4A934206D1184B174A5268F0210A43A2
:101260005A6022E07B68164A934207D1124B124A19
:101270005268F02109010A435A6016E07B68114A5E
:10128000934207D10C4B0C4A5268F02109020A43E1
:101290005A600AE07B680C4A934206D1064B064A24
:1012A0005268F02109030A435A60BD4602B080BD6E
:1012B000FEFF000008000240000002401C00024047
:1012C00030000240440002405800024080B584B023
:1012D00000AF786039600023FB607B681B68FB60AF
:1012E000FB68174A1340FB603B689A683B681B6ABF
:1012F0001A433B681B691A433B685B691A433B68A6
:101300009B691A433B68DB691A433B685B6A1A4373
:101310003B689B6A1343FA681343FB607B68FA6877
:101320001A603B68DA687B685A603B681A687B68B9
:101330009A603B685A687B68DA60BD4604B080BD3D
:101340000F80FFFF80B582B000AF78600A1CFB1CE5
:101350001A70FB1C1B78002B06D07B681B680122CF
:101360001A437B681A6005E07B681B68034A1A40D1
:101370007B681A60BD4602B080BDC046FEFF00001B
:1013800080B584B000AF021C3960FB1D1A70FB1DD4
:101390001B78132B01D9012328E0FB1D1B781A01B0
:1013A000144BD318FB60FB685B790F221340DBB250
:1013B000022B01D0012319E0FB68DB88002B14D13C
:1013C0000D4B1B78DBB20133DAB20B4B1A70FB68A2
:1013D0003A681A60FB680122DA80FB68181C00F08A
:1013E00059FBFEF7C3FE002300E00723181CBD468F
:1013F00004B080BD140300201501002080B582B028
:1014000000AF9023DB05181C00F05AF89023DB0591
:10141000181C0921012200F049F99023DB05181C52
:101420000A21012200F042F93B1CC022D2001A60BE
:101430003B1C02221A713B1C00229A713B1C0322A6
:101440005A713B1C0022DA719023DA053B1C101CF8
:10145000191C00F099F83B1C01221A603B1C002269
:101460001A713B1C00229A713B1C03225A713B1CCF
:101470000022DA719023DA053B1C101C191C00F0C5
:1014800083F80E4B181C00F01BF83B1CC022920086
:101490001A603B1C01221A713B1C00229A713B1CF2
:1014A00003225A713B1C0022DA71044A3B1C101CB7
:1014B000191C00F069F8BD4602B080BD0008004864
:1014C00080B582B000AF78607A689023DB059A42DD
:1014D0000CD180239B02181C0121FEF7EFFF802313
:1014E0009B02181C0021FEF7E9FF42E07B68224ABC
:1014F00093420CD18023DB02181C0121FEF7DEFF92
:101500008023DB02181C0021FEF7D8FF31E07B6846
:101510001A4A93420CD180231B03181C0121FEF7A9
:10152000CDFF80231B03181C0021FEF7C7FF20E01E
:101530007B68134A93420CD180235B03181C012162
:10154000FEF7BCFF80235B03181C0021FEF7B6FFEB
:101550000FE07B680B4A93420BD18023DB03181CFE
:101560000121FEF7ABFF8023DB03181C0021FEF7EF
:10157000A5FFBD4602B080BD000400480008004839
:10158000000C00480014004880B586B000AF7860B9
:10159000396000237B6100233B610023FB60002353
:1015A0007B617CE07B6901229A40131C3B613B68B4
:1015B0001B683A691340FB60FA683B699A426BD139
:1015C0003B681B79012B03D03B681B79022B34D17C
:1015D0007B689B687A695200111C03228A40D243BF
:1015E0001A407B689A607B689A683B685B79191C33
:1015F0007B695B0099400B1C1A437B689A607B688F
:101600009B889BB27A6992B2111C01228A4092B2E5
:10161000D24392B213409AB27B689A807B689B88CF
:101620009AB23B689B79191C7B699BB299400B1C51
:101630009BB213439AB27B689A807B681B687A6975
:101640005200111C03228A40D2431A407B681A6060
:101650007B681A683B681B79191C7B695B009940A1
:101660000B1C1A437B681A607B68DB687A6992B24C
:101670005200032191400A1CD2431A407B68DA6071
:101680007B68DA683B68DB79191C7B695B009940F1
:101690000B1C1A437B68DA607B6901337B617B69D1
:1016A0000F2B00D87EE7BD4606B080BD80B584B064
:1016B00000AF7860081C111CBB1C021C1A807B1C2C
:1016C0000A1C1A700023FB600023BB607B1C1B7884
:1016D000BA1C128807210A4092009340FB60BB1C91
:1016E0001B88DB089BB2181CBB1C1B88DB089BB249
:1016F0001A1C7B6808329200D358BA1C1288072142
:101700000A409200111C0F228A40D2431A40111C39
:101710007B68021C08329200D150BB1C1B88DB087E
:101720009BB21A1C7B6808329200D258FB681343A4
:10173000BB60BB1C1B88DB089BB21A1C7B68083291
:101740009200B968D150BD4604B080BD80B584B068
:1017500000AF786039603B68002B00D164E0344B07
:101760001B68002B06D17B683A681A62304B7A6896
:101770001A6053E02E4B1B68BB603B68FB604AE07D
:10178000FA68BB681B6AD31AFB60FB68002B2EDA71
:10179000BB689B6A002B0ED0BB689B6A7A685A6252
:1017A000BB689A6A7B689A627B68BA685A62BB684F
:1017B0007A689A620AE01E4B1A687B685A621C4B70
:1017C0001B687A689A621A4B7A681A607B685B6A4F
:1017D0001A6AFB68D2187B681A627B685B6A7A684F
:1017E000526A116A7A68126A8A1A1A6216E0FB68EB
:1017F000002B0DDBBB685B6A002B09D17B68BA68E4
:101800009A62BB687A685A62FA687B681A6205E075
:10181000BB685B6ABB60BB68002BB1D17B680222EE
:101820005A71044B01221A70BD4604B080BDC046F7
:10183000100300201601002080B582B000AF786050
:101840007B689B6A002B07D17B685B6A002B03D106
:10185000244B00221A603DE07B689B6A002B14D168
:101860007B685A6A1F4B1A607B685B6A7A68526AA7
:10187000116A7A68126A8A181A627B685B6A0022A7
:101880009A627B6800225A6224E07B685B6A002BC4
:1018900007D17B689B6A00225A627B6800229A62A9
:1018A00018E07B689B6A7A68526A5A627B685B6A56
:1018B0007A68926A9A627B685B6A7A68526A116A8D
:1018C0007A68126A8A181A627B6800225A627B68F8
:1018D00000229A627B68012252421A62BD4602B01F
:1018E00080BDC0461003002080B582B000AF786094
:1018F000164B1B78DBB2002B01D0032321E07B6861
:10190000013301D102231CE07B68002B01D10023AD
:1019100017E00F4B1B78DBB2002B01D0152310E032
:101920000B4B1B78DBB20133DAB2094B1A70094B4F
:101930001A687B68101C191CFFF708FFFEF716FCDD
:101940000023181CBD4602B080BDC0461401002013
:1019500015010020D002002080B582B000AF1B4BE3
:101960001B687B6028E07B681B7AFF2B03D07B68B9
:10197000181C00F0F5F87B68DB69002B04D07B684D
:10198000DB69181C00F0A2FC7B68012252421A623B
:101990007B685A6A0D4B1A607B6800225A627B682A
:1019A000181CFFF7C3F8094B1B687B607B68002B92
:1019B00002D07B6800229A627B68002B03D07B6890
:1019C0001B6A002BCFD0BD4602B080BD10030020A3
:1019D00080B500AF074B1B78DBB2012B06D9064B55
:1019E00001221A70054B01221A7001E0FFF7B4FFC3
:1019F000BD4680BD150100200C0300200D03002012
:101A000080B584B000AF0F23FB1800221A701E4B64
:101A1000BB601E4B7B601CE0BB687A681A60BB68C9
:101A20000F22BA1812781A71BB685A790F218A43AB
:101A3000111C04220A435A71BB681033BB607B68D7
:101A400010337B600F23FB181A780F23FB18013229
:101A50001A700F23FB181B78122BDDD9BB685A793B
:101A60000F218A43111C04220A435A71BB680022C9
:101A70001A60BB680F22BA1812781A71044B024A16
:101A80001A60BD4604B080BD14030020240300206A
:101A90005404002080B584B000AF78607B68DB68B8
:101AA000FB60FB68002B00D154E0FB685A697B683F
:101AB000DA607B68DB68002B03D07B68DB68002280
:101AC0009A61FB6800225A61FB68FF221A72FB6868
:101AD0001B6A013303D0FB68181CFFF7ADFE7B685F
:101AE0005B790F221340DBB2022B07D17B681A68A7
:101AF000FB681A617B6800221A601EE07B685B79D4
:101B00000F221340DBB2032B0CD17B681B68BB6038
:101B1000BB681A68BB68DB889B00D3181A68FB682F
:101B20001A610AE07B685B790F221340DBB2012B5C
:101B300003D1FB68012252421A61084B1B68FA6804
:101B40009A4203D1FB6801225A7103E0FB68181C1A
:101B5000FEF7ECFFBD4604B080BDC046D0020020B9
:101B600080B584B000AF78607B681B7A1A01204B87
:101B7000D318FB607B685B69002B07D17B689B698E
:101B8000002B03D1FB680022DA602BE07B689B69A5
:101B9000002B0BD17B685B6900229A617B685A69D4
:101BA000FB68DA607B6800225A611BE07B685B6936
:101BB000002B07D17B689B6900225A617B68002259
:101BC0009A610FE07B689B697A6852695A617B6809
:101BD0005B697A6892699A617B6800229A617B6886
:101BE00000225A617B68FF221A72BD4604B080BD94
:101BF0001403002080B582B000AF78607B68114A82
:101C000093420CD18023DB01181C0121FEF774FCE8
:101C10008023DB01181C0021FEF76EFC0FE07B68BF
:101C2000094A93420BD180239B02181C0121FEF725
:101C300081FC80239B02181C0021FEF77BFCBD4623
:101C400002B080BD003801400044004080B58CB037
:101C500000AF786039600023FB620023BB62002381
:101C60007B627B681B68012293431A1C7B681A60A5
:101C70007B685B687B627B6A464A13407B623B6899
:101C80009B687A6A13437B627B687A6A5A607B68D6
:101C90001B687B627B6A404A13407B623B685A68E0
:101CA0003B68DB681A433B681B6913437A6A13433A
:101CB0007B627B687A6A1A607B689B687B627B6A5E
:101CC000364A13407B623B685B697A6A13437B62E6
:101CD0007B687A6A9A600823FB18181CFEF7CCFA16
:101CE0007B682F4A934204D10823FB189B69BB628F
:101CF00003E00823FB189B68BB627B681A6880239B
:101D00001B02134014D0BB6A5A003B681B68101CAE
:101D1000191C00F093FC031CFB62BB6A5A003B6871
:101D20001B68101C191C00F00FFD0B1C7B6210E0DF
:101D30003B681B68B86A191C00F080FC031CFB623E
:101D40003B681B68BA6A101C191C00F0FDFC0B1CD8
:101D50007B623B681B685A087B6A9A4202D8FB6A1E
:101D60000133FB627B681A6880231B0213400AD090
:101D7000FB6A0F2213405B087B62FB6A094A1A4028
:101D80007B6A1343FB62FB6A9AB27B689A81BD4609
:101D90000CB080BDFFCFFFFFF3E9FFFFFFFCFFFFAB
:101DA00000380140F0FF000080B582B000AF7860DD
:101DB0000A1CFB1C1A70FB1C1B78002B06D07B68CE
:101DC0001B6801221A437B681A6006E07B681B6867
:101DD000012293431A1C7B681A60BD4602B080BD85
:101DE00080B582B000AF78600A1CFB1C1A70FB1C27
:101DF0001B78002B07D07B685B68802212041A4393
:101E00007B685A6005E07B685B68034A1A407B6820
:101E10005A60BD4602B080BDFFFF7FFF80B582B033
:101E200000AF786039607B685B691B0E1A067B68BF
:101E30005A617B685A693B681A437B685A61BD46A0
:101E400002B080BD80B584B000AFF860B960FB1D02
:101E50001A70FB1D1B78002B06D0FB689A68BB68C4
:101E60001A43FB689A6006E0FB689B68BA68D24335
:101E70001A40FB689A60BD4604B080BD80B588B04A
:101E800000AFF860B960FB1D1A700023BB6100232E
:101E90007B6100233B610023FB61FB68FB61BB6846
:101EA0009BB21B0A9BB2BB61BB68FF2213407B61E4
:101EB0007B6901229A40131C3B61BB69022B03D151
:101EC000FB690433FB6105E0BB69032B02D1FB69AD
:101ED0000833FB61FB1D1B78002B06D0FB69FA69F8
:101EE00011683A690A431A6006E0FB69FA691268E8
:101EF0003969C9430A401A60BD4608B080BDC04672
:101F000080B586B000AF786039600023FB600023A5
:101F10007B610023BB601323FB1800221A703B680F
:101F20009BB21B0A9BB2BB603B68FF2213407B61E4
:101F30007B6901229A40131C7B61BB68012B05D190
:101F40007B681A687B6913407B610DE0BB68022BDC
:101F500005D17B685A687B6913407B6104E07B682C
:101F60009A687B6913407B613B681B0CFB60FB68D4
:101F700001229A40131CFB607B68DA69FB681340FE
:101F8000FB607B69002B07D0FB68002B04D0132378
:101F9000FB1801221A7003E01323FB1800221A70A9
:101FA0001323FB181B78181CBD4606B080BDC04625
:101FB00080B584B000AF786039600023FB600023F7
:101FC000BB603B681B0CFB60FB6801229A40131C42
:101FD000BB607B68BA681A62BD4604B080BDC0466B
:101FE00090B583B000AF786000247B6802B472B60D
:101FF00019780131197062B601390B1C02BCDCB2D0
:10200000231C181CBD4603B090BDC04690B583B0DC
:1020100000AF786000247B6802B472B61978013989
:10202000197062B60B1C02BCDCB2231C181CBD4626
:1020300003B090BD80B500AF62B6C046BD4680BD5E
:1020400080B500AF72B6C046BD4680BD1C3880F377
:1020500009887047024B1B68024A11681960704773
:102060003400002038000020114B1968114A126812
:10207000914216D0EFF3098020380860F0C0444642
:102080004D4656465F46F0C01A6010681030F0C8E2
:10209000A046A946B246BB462038F0C8103080F3AF
:1020A0000988054B00201870044B18680047000091
:1020B000D0020020CC020020150100203C000020AE
:1020C00080B584B000AF021C3960FB1D1A70FB1D87
:1020D0001B78132B01D9012344E0FB1D1B781A0147
:1020E000224BD318FB60FB685B790F221340DBB2F5
:1020F000032B01D0012335E0FB681B68BB60BB6884
:102100009A89BB685B899A4201D108232AE0184B5F
:102110001B78DBB20133DAB2154B1A70BB681A6850
:10212000BB681B899B00D3183A681A60BB681B897F
:1021300001339AB2BB681A81BB689B8901339AB29A
:10214000BB689A81BB681A89BB685B899A4202D1D5
:10215000BB6800221A81FB68181CFFF79BFCFEF786
:1021600005F80023181CBD4604B080BD14030020F0
:102170001501002080B584B000AF021CFB1D1A7051
:102180003A4BBB60FB1D1B781F2B01D9012368E074
:10219000BB689B68FA1D1278012191400A1C13400C
:1021A00001D101235DE0BB681B68FA1D1278012193
:1021B00091400A1C134001D0002352E0BB681B6809
:1021C000FA1D1278012191400A1C1A43BB681A605B
:1021D000274B1B78DBB20133DAB2254B1A70BB6890
:1021E000DB68FB6037E0FB681B7C002B19D1FB68C8
:1021F0009A68BB681B681A40FB689B689A4227D1A3
:10220000FB68181C00F036F8031CFB60BB685B68B9
:10221000FA1D1278012191400A1C134000D01DE0E4
:1022200019E0FB689A68BB681B68134010D0FB6814
:10223000181C00F01FF8031CFB60BB685B68FA1DEC
:102240001278012191400A1C134000D006E002E000
:10225000FB681B68FB60FB68002BC4D1FDF786FFA1
:102260000023181CBD4604B080BDC04658040020A1
:102270001501002080B584B000AF78607B68181C21
:1022800000F024F87B68DB68FB60FB681B6A0133A5
:1022900003D0FB68181CFFF7CFFAFB6801225242FB
:1022A000DA61094B1B68FA689A4203D1FB68012284
:1022B0005A7103E0FB68181CFEF738FC7B681B684A
:1022C000181CBD4604B080BDD002002080B582B08D
:1022D00000AF78607B681B68002B0AD17B685B6865
:1022E000002B06D1184B0022DA60174B00221A612E
:1022F00023E07B681B68002B08D17B685A68124B6F
:102300001A617B685B6800221A6016E07B685B6874
:10231000002B08D17B681A680B4BDA607B681B685E
:1023200000225A6009E07B681B687A6852685A602C
:102330007B685B687A6812681A607B68DB680022D9
:10234000DA61BD4602B080BD5804002080B500AF00
:102350001B4B1B4A126801210A431A60184B184A8A
:10236000526818490A405A60154B154A12681649B6
:102370000A401A60124B124A126814490A401A6045
:102380000F4B0F4A526812490A405A600C4B0C4AD4
:10239000D26A0F218A43DA62094B094A126B0D494E
:1023A0000A401A63064B064A526B01218A435A635C
:1023B000034B00229A6000F00FF8BD4680BDC04676
:1023C000001002400CB8FFF8FFFFF6FEFFFFFBFF16
:1023D000FFFFC0FFACFEFFFF80B582B000AF00235F
:1023E0007B6000233B60314B304A126880214902F8
:1023F0000A431A602D4B1A6880239B0213403B60EE
:102400007B6801337B603B68002B04D17A68A02392
:10241000DB019A42EED1254B1A6880239B021340C0
:1024200002D001233B6001E000233B603B68012BAD
:1024300038D11F4B11221A601C4B1C4A52685A603B
:102440001A4B1A4A52685A60184B184A526819496E
:102450000A405A60154B154A5268882149030A43BD
:102460005A60124B114A1268802149040A431A60CB
:10247000C0460E4B1A6880239B041340F9D00B4BC7
:102480000A4A526803218A435A60084B074A526835
:1024900002210A435A60C046044B5B680C22134079
:1024A000082BF9D1BD4602B080BDC04600100240E5
:1024B00000200240FFFFC0FF80B586B000AFF8608B
:1024C000B9607A607B687B617B691A1F7A618022C0
:1024D00052041A607B691A1F7A61FA681A607B6974
:1024E000022252421A607B69143B7B61BA687B69A5
:1024F0001A607B69203B7B617B69181CBD4606B076
:1025000080BDC04698B500AF204B1B78DBB20133CD
:10251000DAB21E4B1A701E4B5C681B680121002248
:102520005B1854411A4A136054601A4B1B68002B05
:1025300010D0184B1B681B6A012B05D9154B1B6863
:102540001A6A013A1A6205E0124B1B6800221A62ED
:10255000FFF73EFA104B1B68002B10D00E4B1B6888
:102560005B68012B05D90C4B1B685A68013A5A600D
:1025700005E0094B1B6800225A60FEF79DF9074BE6
:1025800001221A70FDF7F2FDBD4698BD150100202D
:1025900070040020100300204801002016010020D4
:1025A00080B584B000AF021CFB1D1A70FB1D1B78A8
:1025B000132B01D901232AE0FB1D1B781A01164BAE
:1025C000D318FB60FB685B790F221340DBB2012B51
:1025D00001D001231BE0FB68DA88FB681B899A4263
:1025E00001D1062313E00D4B1B78DBB20133DAB2C5
:1025F0000A4B1A70FB68DB8801339AB2FB68DA80F9
:10260000FB68181CFFF746FAFDF7B0FD0023181C05
:10261000BD4604B080BDC046140300201501002053
:1026200080B582B000AF7860FEE7C04680B582B06A
:1026300000AF021CFB1D1A70FEE7C04600224308D3
:102640008B4274D303098B425FD3030A8B4244D37A
:10265000030B8B4228D3030C8B420DD3FF220902BC
:1026600012BA030C8B4202D31212090265D0030B7B
:102670008B4219D300E0090AC30B8B4201D3CB0371
:10268000C01A5241830B8B4201D38B03C01A5241B3
:10269000430B8B4201D34B03C01A5241030B8B42B5
:1026A00001D30B03C01A5241C30A8B4201D3CB02A0
:1026B000C01A5241830A8B4201D38B02C01A524185
:1026C000430A8B4201D34B02C01A5241030A8B4288
:1026D00001D30B02C01A5241CDD2C3098B4201D3A0
:1026E000CB01C01A524183098B4201D38B01C01A1E
:1026F000524143098B4201D34B01C01A5241030995
:102700008B4201D30B01C01A5241C3088B4201D343
:10271000CB00C01A524183088B4201D38B00C01AF0
:10272000524143088B4201D34B00C01A5241411A17
:1027300000D20146524110467047FFE701B5002024
:1027400000F0FCF802BDC0460029F7D003B5FFF742
:1027500075FF0EBC4243891A1847C04603460B4317
:102760007FD4002243088B4274D303098B425FD38A
:10277000030A8B4244D3030B8B4228D3030C8B42B6
:102780000DD3FF22090212BA030C8B4202D312129C
:10279000090265D0030B8B4219D300E0090AC30B71
:1027A0008B4201D3CB03C01A5241830B8B4201D31E
:1027B0008B03C01A5241430B8B4201D34B03C01A07
:1027C0005241030B8B4201D30B03C01A5241C30A7F
:1027D0008B4201D3CB02C01A5241830A8B4201D3F0
:1027E0008B02C01A5241430A8B4201D34B02C01ADA
:1027F0005241030A8B4201D30B02C01A5241CDD27F
:10280000C3098B4201D3CB01C01A524183098B42C9
:1028100001D38B01C01A524143098B4201D34B01B2
:10282000C01A524103098B4201D30B01C01A524115
:10283000C3088B4201D3CB00C01A524183088B429C
:1028400001D38B00C01A524143088B4201D34B0085
:10285000C01A5241411A00D20146524110467047F7
:102860005DE0CA0F00D04942031000D340425340FC
:1028700000229C4603098B422DD3030A8B4212D3BC
:10288000FC22890112BA030A8B420CD389019211EE
:102890008B4208D3890192118B4204D389013AD02B
:1028A000921100E08909C3098B4201D3CB01C01A00
:1028B000524183098B4201D38B01C01A5241430913
:1028C0008B4201D34B01C01A524103098B4201D301
:1028D0000B01C01A5241C3088B4201D3CB00C01A6E
:1028E000524183088B4201D38B00C01A5241D9D286
:1028F00043088B4201D34B00C01A5241411A00D207
:102900000146634652415B10104601D34042002B02
:1029100000D54942704763465B1000D3404201B581
:10292000002000F00BF802BD0029F8D003B5FFF736
:1029300015FF0EBC4243891A1847C0467047C0466F
:0C2940005901000014000000820000009B
:10294C000000000001020304010203040607080949
:10295C0000137561727431207472616E736D6974D9
:10296C0020646174610D0A0000000000000000008A
:10297C000000000004ED00E000000010FCFFFFFF71
:0400000508000000EF
:00000001FF
